{
  "_format": "hh-sol-artifact-1",
  "contractName": "MyNFT",
  "sourceName": "contracts/MyNFT.sol",
  "abi": [
    {
      "inputs": [],
      "stateMutability": "nonpayable",
      "type": "constructor"
    },
    {
      "anonymous": false,
      "inputs": [
        {
          "indexed": true,
          "internalType": "address",
          "name": "owner",
          "type": "address"
        },
        {
          "indexed": true,
          "internalType": "address",
          "name": "approved",
          "type": "address"
        },
        {
          "indexed": true,
          "internalType": "uint256",
          "name": "tokenId",
          "type": "uint256"
        }
      ],
      "name": "Approval",
      "type": "event"
    },
    {
      "anonymous": false,
      "inputs": [
        {
          "indexed": true,
          "internalType": "address",
          "name": "owner",
          "type": "address"
        },
        {
          "indexed": true,
          "internalType": "address",
          "name": "operator",
          "type": "address"
        },
        {
          "indexed": false,
          "internalType": "bool",
          "name": "approved",
          "type": "bool"
        }
      ],
      "name": "ApprovalForAll",
      "type": "event"
    },
    {
      "anonymous": false,
      "inputs": [
        {
          "indexed": false,
          "internalType": "uint256",
          "name": "_fromTokenId",
          "type": "uint256"
        },
        {
          "indexed": false,
          "internalType": "uint256",
          "name": "_toTokenId",
          "type": "uint256"
        }
      ],
      "name": "BatchMetadataUpdate",
      "type": "event"
    },
    {
      "anonymous": false,
      "inputs": [
        {
          "indexed": false,
          "internalType": "uint256",
          "name": "_tokenId",
          "type": "uint256"
        }
      ],
      "name": "MetadataUpdate",
      "type": "event"
    },
    {
      "anonymous": false,
      "inputs": [
        {
          "indexed": true,
          "internalType": "address",
          "name": "previousOwner",
          "type": "address"
        },
        {
          "indexed": true,
          "internalType": "address",
          "name": "newOwner",
          "type": "address"
        }
      ],
      "name": "OwnershipTransferred",
      "type": "event"
    },
    {
      "anonymous": false,
      "inputs": [
        {
          "indexed": true,
          "internalType": "address",
          "name": "from",
          "type": "address"
        },
        {
          "indexed": true,
          "internalType": "address",
          "name": "to",
          "type": "address"
        },
        {
          "indexed": true,
          "internalType": "uint256",
          "name": "tokenId",
          "type": "uint256"
        }
      ],
      "name": "Transfer",
      "type": "event"
    },
    {
      "inputs": [
        {
          "internalType": "address",
          "name": "to",
          "type": "address"
        },
        {
          "internalType": "uint256",
          "name": "tokenId",
          "type": "uint256"
        }
      ],
      "name": "approve",
      "outputs": [],
      "stateMutability": "nonpayable",
      "type": "function"
    },
    {
      "inputs": [
        {
          "internalType": "address",
          "name": "owner",
          "type": "address"
        }
      ],
      "name": "balanceOf",
      "outputs": [
        {
          "internalType": "uint256",
          "name": "",
          "type": "uint256"
        }
      ],
      "stateMutability": "view",
      "type": "function"
    },
    {
      "inputs": [
        {
          "internalType": "uint256",
          "name": "tokenId",
          "type": "uint256"
        }
      ],
      "name": "getApproved",
      "outputs": [
        {
          "internalType": "address",
          "name": "",
          "type": "address"
        }
      ],
      "stateMutability": "view",
      "type": "function"
    },
    {
      "inputs": [
        {
          "internalType": "address",
          "name": "user",
          "type": "address"
        }
      ],
      "name": "getUserTransactionHistory",
      "outputs": [
        {
          "internalType": "uint256[]",
          "name": "",
          "type": "uint256[]"
        }
      ],
      "stateMutability": "view",
      "type": "function"
    },
    {
      "inputs": [
        {
          "internalType": "address",
          "name": "owner",
          "type": "address"
        },
        {
          "internalType": "address",
          "name": "operator",
          "type": "address"
        }
      ],
      "name": "isApprovedForAll",
      "outputs": [
        {
          "internalType": "bool",
          "name": "",
          "type": "bool"
        }
      ],
      "stateMutability": "view",
      "type": "function"
    },
    {
      "inputs": [
        {
          "internalType": "address",
          "name": "recipient",
          "type": "address"
        },
        {
          "internalType": "string",
          "name": "tokenURI",
          "type": "string"
        }
      ],
      "name": "mintNFT",
      "outputs": [
        {
          "internalType": "uint256",
          "name": "",
          "type": "uint256"
        }
      ],
      "stateMutability": "nonpayable",
      "type": "function"
    },
    {
      "inputs": [],
      "name": "name",
      "outputs": [
        {
          "internalType": "string",
          "name": "",
          "type": "string"
        }
      ],
      "stateMutability": "view",
      "type": "function"
    },
    {
      "inputs": [],
      "name": "owner",
      "outputs": [
        {
          "internalType": "address",
          "name": "",
          "type": "address"
        }
      ],
      "stateMutability": "view",
      "type": "function"
    },
    {
      "inputs": [
        {
          "internalType": "uint256",
          "name": "tokenId",
          "type": "uint256"
        }
      ],
      "name": "ownerOf",
      "outputs": [
        {
          "internalType": "address",
          "name": "",
          "type": "address"
        }
      ],
      "stateMutability": "view",
      "type": "function"
    },
    {
      "inputs": [],
      "name": "renounceOwnership",
      "outputs": [],
      "stateMutability": "nonpayable",
      "type": "function"
    },
    {
      "inputs": [
        {
          "internalType": "address",
          "name": "from",
          "type": "address"
        },
        {
          "internalType": "address",
          "name": "to",
          "type": "address"
        },
        {
          "internalType": "uint256",
          "name": "tokenId",
          "type": "uint256"
        }
      ],
      "name": "safeTransferFrom",
      "outputs": [],
      "stateMutability": "nonpayable",
      "type": "function"
    },
    {
      "inputs": [
        {
          "internalType": "address",
          "name": "from",
          "type": "address"
        },
        {
          "internalType": "address",
          "name": "to",
          "type": "address"
        },
        {
          "internalType": "uint256",
          "name": "tokenId",
          "type": "uint256"
        },
        {
          "internalType": "bytes",
          "name": "data",
          "type": "bytes"
        }
      ],
      "name": "safeTransferFrom",
      "outputs": [],
      "stateMutability": "nonpayable",
      "type": "function"
    },
    {
      "inputs": [
        {
          "internalType": "address",
          "name": "operator",
          "type": "address"
        },
        {
          "internalType": "bool",
          "name": "approved",
          "type": "bool"
        }
      ],
      "name": "setApprovalForAll",
      "outputs": [],
      "stateMutability": "nonpayable",
      "type": "function"
    },
    {
      "inputs": [
        {
          "internalType": "bytes4",
          "name": "interfaceId",
          "type": "bytes4"
        }
      ],
      "name": "supportsInterface",
      "outputs": [
        {
          "internalType": "bool",
          "name": "",
          "type": "bool"
        }
      ],
      "stateMutability": "view",
      "type": "function"
    },
    {
      "inputs": [],
      "name": "symbol",
      "outputs": [
        {
          "internalType": "string",
          "name": "",
          "type": "string"
        }
      ],
      "stateMutability": "view",
      "type": "function"
    },
    {
      "inputs": [
        {
          "internalType": "uint256",
          "name": "tokenId",
          "type": "uint256"
        }
      ],
      "name": "tokenURI",
      "outputs": [
        {
          "internalType": "string",
          "name": "",
          "type": "string"
        }
      ],
      "stateMutability": "view",
      "type": "function"
    },
    {
      "inputs": [
        {
          "internalType": "address",
          "name": "from",
          "type": "address"
        },
        {
          "internalType": "address",
          "name": "to",
          "type": "address"
        },
        {
          "internalType": "uint256",
          "name": "tokenId",
          "type": "uint256"
        }
      ],
      "name": "transferFrom",
      "outputs": [],
      "stateMutability": "nonpayable",
      "type": "function"
    },
    {
      "inputs": [
        {
          "internalType": "address",
          "name": "newOwner",
          "type": "address"
        }
      ],
      "name": "transferOwnership",
      "outputs": [],
      "stateMutability": "nonpayable",
      "type": "function"
    },
    {
      "inputs": [
        {
          "internalType": "uint256",
          "name": "tokenId",
          "type": "uint256"
        },
        {
          "internalType": "string",
          "name": "newTokenURI",
          "type": "string"
        }
      ],
      "name": "updateTokenURI",
      "outputs": [],
      "stateMutability": "nonpayable",
      "type": "function"
    }
  ],
  "bytecode": "0x60806040523480156200001157600080fd5b506040518060400160405280600581526020017f4d794e46540000000000000000000000000000000000000000000000000000008152506040518060400160405280600381526020017f4e4654000000000000000000000000000000000000000000000000000000000081525081600090816200008f919062000412565b508060019081620000a1919062000412565b505050620000c4620000b8620000ca60201b60201c565b620000d260201b60201c565b620004f9565b600033905090565b6000600760009054906101000a900473ffffffffffffffffffffffffffffffffffffffff16905081600760006101000a81548173ffffffffffffffffffffffffffffffffffffffff021916908373ffffffffffffffffffffffffffffffffffffffff1602179055508173ffffffffffffffffffffffffffffffffffffffff168173ffffffffffffffffffffffffffffffffffffffff167f8be0079c531659141344cd1fd0a4f28419497f9722a3daafe3b4186f6b6457e060405160405180910390a35050565b600081519050919050565b7f4e487b7100000000000000000000000000000000000000000000000000000000600052604160045260246000fd5b7f4e487b7100000000000000000000000000000000000000000000000000000000600052602260045260246000fd5b600060028204905060018216806200021a57607f821691505b60208210810362000230576200022f620001d2565b5b50919050565b60008190508160005260206000209050919050565b60006020601f8301049050919050565b600082821b905092915050565b6000600883026200029a7fffffffffffffffffffffffffffffffffffffffffffffffffffffffffffffffff826200025b565b620002a686836200025b565b95508019841693508086168417925050509392505050565b6000819050919050565b6000819050919050565b6000620002f3620002ed620002e784620002be565b620002c8565b620002be565b9050919050565b6000819050919050565b6200030f83620002d2565b620003276200031e82620002fa565b84845462000268565b825550505050565b600090565b6200033e6200032f565b6200034b81848462000304565b505050565b5b8181101562000373576200036760008262000334565b60018101905062000351565b5050565b601f821115620003c2576200038c8162000236565b62000397846200024b565b81016020851015620003a7578190505b620003bf620003b6856200024b565b83018262000350565b50505b505050565b600082821c905092915050565b6000620003e760001984600802620003c7565b1980831691505092915050565b6000620004028383620003d4565b9150826002028217905092915050565b6200041d8262000198565b67ffffffffffffffff811115620004395762000438620001a3565b5b62000445825462000201565b6200045282828562000377565b600060209050601f8311600181146200048a576000841562000475578287015190505b620004818582620003f4565b865550620004f1565b601f1984166200049a8662000236565b60005b82811015620004c4578489015182556001820191506020850194506020810190506200049d565b86831015620004e45784890151620004e0601f891682620003d4565b8355505b6001600288020188555050505b505050505050565b6132af80620005096000396000f3fe608060405234801561001057600080fd5b50600436106101215760003560e01c8063715018a6116100ad578063c51309db11610071578063c51309db146102f2578063c87b56dd14610322578063e985e9c514610352578063eacabe1414610382578063f2fde38b146103b257610121565b8063715018a6146102745780638da5cb5b1461027e57806395d89b411461029c578063a22cb465146102ba578063b88d4fde146102d657610121565b806318e97fd1116100f457806318e97fd1146101c057806323b872dd146101dc57806342842e0e146101f85780636352211e1461021457806370a082311461024457610121565b806301ffc9a71461012657806306fdde0314610156578063081812fc14610174578063095ea7b3146101a4575b600080fd5b610140600480360381019061013b9190611e66565b6103ce565b60405161014d9190611eae565b60405180910390f35b61015e61042f565b60405161016b9190611f59565b60405180910390f35b61018e60048036038101906101899190611fb1565b6104c1565b60405161019b919061201f565b60405180910390f35b6101be60048036038101906101b99190612066565b610507565b005b6101da60048036038101906101d591906121db565b61061e565b005b6101f660048036038101906101f19190612237565b6106ec565b005b610212600480360381019061020d9190612237565b61074c565b005b61022e60048036038101906102299190611fb1565b61076c565b60405161023b919061201f565b60405180910390f35b61025e6004803603810190610259919061228a565b6107f2565b60405161026b91906122c6565b60405180910390f35b61027c6108a9565b005b6102866108bd565b604051610293919061201f565b60405180910390f35b6102a46108e7565b6040516102b19190611f59565b60405180910390f35b6102d460048036038101906102cf919061230d565b610979565b005b6102f060048036038101906102eb91906123ee565b61098f565b005b61030c6004803603810190610307919061228a565b6109f1565b604051610319919061252f565b60405180910390f35b61033c60048036038101906103379190611fb1565b610a88565b6040516103499190611f59565b60405180910390f35b61036c60048036038101906103679190612551565b610b9a565b6040516103799190611eae565b60405180910390f35b61039c60048036038101906103979190612591565b610c2e565b6040516103a991906122c6565b60405180910390f35b6103cc60048036038101906103c7919061228a565b610ccc565b005b6000634906490660e01b7bffffffffffffffffffffffffffffffffffffffffffffffffffffffff1916827bffffffffffffffffffffffffffffffffffffffffffffffffffffffff19161480610428575061042782610d4f565b5b9050919050565b60606000805461043e9061261c565b80601f016020809104026020016040519081016040528092919081815260200182805461046a9061261c565b80156104b75780601f1061048c576101008083540402835291602001916104b7565b820191906000526020600020905b81548152906001019060200180831161049a57829003601f168201915b5050505050905090565b60006104cc82610e31565b6004600083815260200190815260200160002060009054906101000a900473ffffffffffffffffffffffffffffffffffffffff169050919050565b60006105128261076c565b90508073ffffffffffffffffffffffffffffffffffffffff168373ffffffffffffffffffffffffffffffffffffffff1603610582576040517f08c379a0000000000000000000000000000000000000000000000000000000008152600401610579906126bf565b60405180910390fd5b8073ffffffffffffffffffffffffffffffffffffffff166105a1610e7c565b73ffffffffffffffffffffffffffffffffffffffff1614806105d057506105cf816105ca610e7c565b610b9a565b5b61060f576040517f08c379a000000000000000000000000000000000000000000000000000000000815260040161060690612751565b60405180910390fd5b6106198383610e84565b505050565b813373ffffffffffffffffffffffffffffffffffffffff1661063f8261076c565b73ffffffffffffffffffffffffffffffffffffffff1614610695576040517f08c379a000000000000000000000000000000000000000000000000000000000815260040161068c906127e3565b60405180910390fd5b61069e83610f3d565b6106dd576040517f08c379a00000000000000000000000000000000000000000000000000000000081526004016106d49061284f565b60405180910390fd5b6106e78383610f7e565b505050565b6106fd6106f7610e7c565b82611022565b61073c576040517f08c379a0000000000000000000000000000000000000000000000000000000008152600401610733906128e1565b60405180910390fd5b6107478383836110b7565b505050565b6107678383836040518060200160405280600081525061098f565b505050565b600080610778836113b0565b9050600073ffffffffffffffffffffffffffffffffffffffff168173ffffffffffffffffffffffffffffffffffffffff16036107e9576040517f08c379a00000000000000000000000000000000000000000000000000000000081526004016107e09061294d565b60405180910390fd5b80915050919050565b60008073ffffffffffffffffffffffffffffffffffffffff168273ffffffffffffffffffffffffffffffffffffffff1603610862576040517f08c379a0000000000000000000000000000000000000000000000000000000008152600401610859906129df565b60405180910390fd5b600360008373ffffffffffffffffffffffffffffffffffffffff1673ffffffffffffffffffffffffffffffffffffffff168152602001908152602001600020549050919050565b6108b16113ed565b6108bb600061146b565b565b6000600760009054906101000a900473ffffffffffffffffffffffffffffffffffffffff16905090565b6060600180546108f69061261c565b80601f01602080910402602001604051908101604052809291908181526020018280546109229061261c565b801561096f5780601f106109445761010080835404028352916020019161096f565b820191906000526020600020905b81548152906001019060200180831161095257829003601f168201915b5050505050905090565b61098b610984610e7c565b8383611531565b5050565b6109a061099a610e7c565b83611022565b6109df576040517f08c379a00000000000000000000000000000000000000000000000000000000081526004016109d6906128e1565b60405180910390fd5b6109eb8484848461169d565b50505050565b6060600960008373ffffffffffffffffffffffffffffffffffffffff1673ffffffffffffffffffffffffffffffffffffffff168152602001908152602001600020805480602002602001604051908101604052809291908181526020018280548015610a7c57602002820191906000526020600020905b815481526020019060010190808311610a68575b50505050509050919050565b6060610a9382610e31565b6000600660008481526020019081526020016000208054610ab39061261c565b80601f0160208091040260200160405190810160405280929190818152602001828054610adf9061261c565b8015610b2c5780601f10610b0157610100808354040283529160200191610b2c565b820191906000526020600020905b815481529060010190602001808311610b0f57829003601f168201915b505050505090506000610b3d6116f9565b90506000815103610b52578192505050610b95565b600082511115610b87578082604051602001610b6f929190612a3b565b60405160208183030381529060405292505050610b95565b610b9084611710565b925050505b919050565b6000600560008473ffffffffffffffffffffffffffffffffffffffff1673ffffffffffffffffffffffffffffffffffffffff16815260200190815260200160002060008373ffffffffffffffffffffffffffffffffffffffff1673ffffffffffffffffffffffffffffffffffffffff16815260200190815260200160002060009054906101000a900460ff16905092915050565b6000610c3a6008611778565b6000610c46600861178e565b9050600960008573ffffffffffffffffffffffffffffffffffffffff1673ffffffffffffffffffffffffffffffffffffffff168152602001908152602001600020819080600181540180825580915050600190039060005260206000200160009091909190915055610cb8848261179c565b610cc28184610f7e565b8091505092915050565b610cd46113ed565b600073ffffffffffffffffffffffffffffffffffffffff168173ffffffffffffffffffffffffffffffffffffffff1603610d43576040517f08c379a0000000000000000000000000000000000000000000000000000000008152600401610d3a90612ad1565b60405180910390fd5b610d4c8161146b565b50565b60007f80ac58cd000000000000000000000000000000000000000000000000000000007bffffffffffffffffffffffffffffffffffffffffffffffffffffffff1916827bffffffffffffffffffffffffffffffffffffffffffffffffffffffff19161480610e1a57507f5b5e139f000000000000000000000000000000000000000000000000000000007bffffffffffffffffffffffffffffffffffffffffffffffffffffffff1916827bffffffffffffffffffffffffffffffffffffffffffffffffffffffff1916145b80610e2a5750610e29826119b9565b5b9050919050565b610e3a81610f3d565b610e79576040517f08c379a0000000000000000000000000000000000000000000000000000000008152600401610e709061294d565b60405180910390fd5b50565b600033905090565b816004600083815260200190815260200160002060006101000a81548173ffffffffffffffffffffffffffffffffffffffff021916908373ffffffffffffffffffffffffffffffffffffffff160217905550808273ffffffffffffffffffffffffffffffffffffffff16610ef78361076c565b73ffffffffffffffffffffffffffffffffffffffff167f8c5be1e5ebec7d5bd14f71427d1e84f3dd0314c0f7b2291e5b200ac8c7c3b92560405160405180910390a45050565b60008073ffffffffffffffffffffffffffffffffffffffff16610f5f836113b0565b73ffffffffffffffffffffffffffffffffffffffff1614159050919050565b610f8782610f3d565b610fc6576040517f08c379a0000000000000000000000000000000000000000000000000000000008152600401610fbd90612b63565b60405180910390fd5b80600660008481526020019081526020016000209081610fe69190612d2f565b507ff8e1a15aba9398e019f0b49df1a4fde98ee17ae345cb5f6b5e2c27f5033e8ce78260405161101691906122c6565b60405180910390a15050565b60008061102e8361076c565b90508073ffffffffffffffffffffffffffffffffffffffff168473ffffffffffffffffffffffffffffffffffffffff161480611070575061106f8185610b9a565b5b806110ae57508373ffffffffffffffffffffffffffffffffffffffff16611096846104c1565b73ffffffffffffffffffffffffffffffffffffffff16145b91505092915050565b8273ffffffffffffffffffffffffffffffffffffffff166110d78261076c565b73ffffffffffffffffffffffffffffffffffffffff161461112d576040517f08c379a000000000000000000000000000000000000000000000000000000000815260040161112490612e73565b60405180910390fd5b600073ffffffffffffffffffffffffffffffffffffffff168273ffffffffffffffffffffffffffffffffffffffff160361119c576040517f08c379a000000000000000000000000000000000000000000000000000000000815260040161119390612f05565b60405180910390fd5b6111a98383836001611a23565b8273ffffffffffffffffffffffffffffffffffffffff166111c98261076c565b73ffffffffffffffffffffffffffffffffffffffff161461121f576040517f08c379a000000000000000000000000000000000000000000000000000000000815260040161121690612e73565b60405180910390fd5b6004600082815260200190815260200160002060006101000a81549073ffffffffffffffffffffffffffffffffffffffff02191690556001600360008573ffffffffffffffffffffffffffffffffffffffff1673ffffffffffffffffffffffffffffffffffffffff168152602001908152602001600020600082825403925050819055506001600360008473ffffffffffffffffffffffffffffffffffffffff1673ffffffffffffffffffffffffffffffffffffffff16815260200190815260200160002060008282540192505081905550816002600083815260200190815260200160002060006101000a81548173ffffffffffffffffffffffffffffffffffffffff021916908373ffffffffffffffffffffffffffffffffffffffff160217905550808273ffffffffffffffffffffffffffffffffffffffff168473ffffffffffffffffffffffffffffffffffffffff167fddf252ad1be2c89b69c2b068fc378daa952ba7f163c4a11628f55a4df523b3ef60405160405180910390a46113ab8383836001611a29565b505050565b60006002600083815260200190815260200160002060009054906101000a900473ffffffffffffffffffffffffffffffffffffffff169050919050565b6113f5610e7c565b73ffffffffffffffffffffffffffffffffffffffff166114136108bd565b73ffffffffffffffffffffffffffffffffffffffff1614611469576040517f08c379a000000000000000000000000000000000000000000000000000000000815260040161146090612f71565b60405180910390fd5b565b6000600760009054906101000a900473ffffffffffffffffffffffffffffffffffffffff16905081600760006101000a81548173ffffffffffffffffffffffffffffffffffffffff021916908373ffffffffffffffffffffffffffffffffffffffff1602179055508173ffffffffffffffffffffffffffffffffffffffff168173ffffffffffffffffffffffffffffffffffffffff167f8be0079c531659141344cd1fd0a4f28419497f9722a3daafe3b4186f6b6457e060405160405180910390a35050565b8173ffffffffffffffffffffffffffffffffffffffff168373ffffffffffffffffffffffffffffffffffffffff160361159f576040517f08c379a000000000000000000000000000000000000000000000000000000000815260040161159690612fdd565b60405180910390fd5b80600560008573ffffffffffffffffffffffffffffffffffffffff1673ffffffffffffffffffffffffffffffffffffffff16815260200190815260200160002060008473ffffffffffffffffffffffffffffffffffffffff1673ffffffffffffffffffffffffffffffffffffffff16815260200190815260200160002060006101000a81548160ff0219169083151502179055508173ffffffffffffffffffffffffffffffffffffffff168373ffffffffffffffffffffffffffffffffffffffff167f17307eab39ab6107e8899845ad3d59bd9653f200f220920489ca2b5937696c31836040516116909190611eae565b60405180910390a3505050565b6116a88484846110b7565b6116b484848484611a2f565b6116f3576040517f08c379a00000000000000000000000000000000000000000000000000000000081526004016116ea9061306f565b60405180910390fd5b50505050565b606060405180602001604052806000815250905090565b606061171b82610e31565b60006117256116f9565b905060008151116117455760405180602001604052806000815250611770565b8061174f84611bb6565b604051602001611760929190612a3b565b6040516020818303038152906040525b915050919050565b6001816000016000828254019250508190555050565b600081600001549050919050565b600073ffffffffffffffffffffffffffffffffffffffff168273ffffffffffffffffffffffffffffffffffffffff160361180b576040517f08c379a0000000000000000000000000000000000000000000000000000000008152600401611802906130db565b60405180910390fd5b61181481610f3d565b15611854576040517f08c379a000000000000000000000000000000000000000000000000000000000815260040161184b90613147565b60405180910390fd5b611862600083836001611a23565b61186b81610f3d565b156118ab576040517f08c379a00000000000000000000000000000000000000000000000000000000081526004016118a290613147565b60405180910390fd5b6001600360008473ffffffffffffffffffffffffffffffffffffffff1673ffffffffffffffffffffffffffffffffffffffff16815260200190815260200160002060008282540192505081905550816002600083815260200190815260200160002060006101000a81548173ffffffffffffffffffffffffffffffffffffffff021916908373ffffffffffffffffffffffffffffffffffffffff160217905550808273ffffffffffffffffffffffffffffffffffffffff16600073ffffffffffffffffffffffffffffffffffffffff167fddf252ad1be2c89b69c2b068fc378daa952ba7f163c4a11628f55a4df523b3ef60405160405180910390a46119b5600083836001611a29565b5050565b60007f01ffc9a7000000000000000000000000000000000000000000000000000000007bffffffffffffffffffffffffffffffffffffffffffffffffffffffff1916827bffffffffffffffffffffffffffffffffffffffffffffffffffffffff1916149050919050565b50505050565b50505050565b6000611a508473ffffffffffffffffffffffffffffffffffffffff16611c84565b15611ba9578373ffffffffffffffffffffffffffffffffffffffff1663150b7a02611a79610e7c565b8786866040518563ffffffff1660e01b8152600401611a9b94939291906131bc565b6020604051808303816000875af1925050508015611ad757506040513d601f19601f82011682018060405250810190611ad4919061321d565b60015b611b59573d8060008114611b07576040519150601f19603f3d011682016040523d82523d6000602084013e611b0c565b606091505b506000815103611b51576040517f08c379a0000000000000000000000000000000000000000000000000000000008152600401611b489061306f565b60405180910390fd5b805181602001fd5b63150b7a0260e01b7bffffffffffffffffffffffffffffffffffffffffffffffffffffffff1916817bffffffffffffffffffffffffffffffffffffffffffffffffffffffff191614915050611bae565b600190505b949350505050565b606060006001611bc584611ca7565b01905060008167ffffffffffffffff811115611be457611be36120b0565b5b6040519080825280601f01601f191660200182016040528015611c165781602001600182028036833780820191505090505b509050600082602001820190505b600115611c79578080600190039150507f3031323334353637383961626364656600000000000000000000000000000000600a86061a8153600a8581611c6d57611c6c61324a565b5b04945060008503611c24575b819350505050919050565b6000808273ffffffffffffffffffffffffffffffffffffffff163b119050919050565b600080600090507a184f03e93ff9f4daa797ed6e38ed64bf6a1f0100000000000000008310611d05577a184f03e93ff9f4daa797ed6e38ed64bf6a1f0100000000000000008381611cfb57611cfa61324a565b5b0492506040810190505b6d04ee2d6d415b85acef81000000008310611d42576d04ee2d6d415b85acef81000000008381611d3857611d3761324a565b5b0492506020810190505b662386f26fc100008310611d7157662386f26fc100008381611d6757611d6661324a565b5b0492506010810190505b6305f5e1008310611d9a576305f5e1008381611d9057611d8f61324a565b5b0492506008810190505b6127108310611dbf576127108381611db557611db461324a565b5b0492506004810190505b60648310611de25760648381611dd857611dd761324a565b5b0492506002810190505b600a8310611df1576001810190505b80915050919050565b6000604051905090565b600080fd5b600080fd5b60007fffffffff0000000000000000000000000000000000000000000000000000000082169050919050565b611e4381611e0e565b8114611e4e57600080fd5b50565b600081359050611e6081611e3a565b92915050565b600060208284031215611e7c57611e7b611e04565b5b6000611e8a84828501611e51565b91505092915050565b60008115159050919050565b611ea881611e93565b82525050565b6000602082019050611ec36000830184611e9f565b92915050565b600081519050919050565b600082825260208201905092915050565b60005b83811015611f03578082015181840152602081019050611ee8565b60008484015250505050565b6000601f19601f8301169050919050565b6000611f2b82611ec9565b611f358185611ed4565b9350611f45818560208601611ee5565b611f4e81611f0f565b840191505092915050565b60006020820190508181036000830152611f738184611f20565b905092915050565b6000819050919050565b611f8e81611f7b565b8114611f9957600080fd5b50565b600081359050611fab81611f85565b92915050565b600060208284031215611fc757611fc6611e04565b5b6000611fd584828501611f9c565b91505092915050565b600073ffffffffffffffffffffffffffffffffffffffff82169050919050565b600061200982611fde565b9050919050565b61201981611ffe565b82525050565b60006020820190506120346000830184612010565b92915050565b61204381611ffe565b811461204e57600080fd5b50565b6000813590506120608161203a565b92915050565b6000806040838503121561207d5761207c611e04565b5b600061208b85828601612051565b925050602061209c85828601611f9c565b9150509250929050565b600080fd5b600080fd5b7f4e487b7100000000000000000000000000000000000000000000000000000000600052604160045260246000fd5b6120e882611f0f565b810181811067ffffffffffffffff82111715612107576121066120b0565b5b80604052505050565b600061211a611dfa565b905061212682826120df565b919050565b600067ffffffffffffffff821115612146576121456120b0565b5b61214f82611f0f565b9050602081019050919050565b82818337600083830152505050565b600061217e6121798461212b565b612110565b90508281526020810184848401111561219a576121996120ab565b5b6121a584828561215c565b509392505050565b600082601f8301126121c2576121c16120a6565b5b81356121d284826020860161216b565b91505092915050565b600080604083850312156121f2576121f1611e04565b5b600061220085828601611f9c565b925050602083013567ffffffffffffffff81111561222157612220611e09565b5b61222d858286016121ad565b9150509250929050565b6000806000606084860312156122505761224f611e04565b5b600061225e86828701612051565b935050602061226f86828701612051565b925050604061228086828701611f9c565b9150509250925092565b6000602082840312156122a05761229f611e04565b5b60006122ae84828501612051565b91505092915050565b6122c081611f7b565b82525050565b60006020820190506122db60008301846122b7565b92915050565b6122ea81611e93565b81146122f557600080fd5b50565b600081359050612307816122e1565b92915050565b6000806040838503121561232457612323611e04565b5b600061233285828601612051565b9250506020612343858286016122f8565b9150509250929050565b600067ffffffffffffffff821115612368576123676120b0565b5b61237182611f0f565b9050602081019050919050565b600061239161238c8461234d565b612110565b9050828152602081018484840111156123ad576123ac6120ab565b5b6123b884828561215c565b509392505050565b600082601f8301126123d5576123d46120a6565b5b81356123e584826020860161237e565b91505092915050565b6000806000806080858703121561240857612407611e04565b5b600061241687828801612051565b945050602061242787828801612051565b935050604061243887828801611f9c565b925050606085013567ffffffffffffffff81111561245957612458611e09565b5b612465878288016123c0565b91505092959194509250565b600081519050919050565b600082825260208201905092915050565b6000819050602082019050919050565b6124a681611f7b565b82525050565b60006124b8838361249d565b60208301905092915050565b6000602082019050919050565b60006124dc82612471565b6124e6818561247c565b93506124f18361248d565b8060005b8381101561252257815161250988826124ac565b9750612514836124c4565b9250506001810190506124f5565b5085935050505092915050565b6000602082019050818103600083015261254981846124d1565b905092915050565b6000806040838503121561256857612567611e04565b5b600061257685828601612051565b925050602061258785828601612051565b9150509250929050565b600080604083850312156125a8576125a7611e04565b5b60006125b685828601612051565b925050602083013567ffffffffffffffff8111156125d7576125d6611e09565b5b6125e3858286016121ad565b9150509250929050565b7f4e487b7100000000000000000000000000000000000000000000000000000000600052602260045260246000fd5b6000600282049050600182168061263457607f821691505b602082108103612647576126466125ed565b5b50919050565b7f4552433732313a20617070726f76616c20746f2063757272656e74206f776e6560008201527f7200000000000000000000000000000000000000000000000000000000000000602082015250565b60006126a9602183611ed4565b91506126b48261264d565b604082019050919050565b600060208201905081810360008301526126d88161269c565b9050919050565b7f4552433732313a20617070726f76652063616c6c6572206973206e6f7420746f60008201527f6b656e206f776e6572206f7220617070726f76656420666f7220616c6c000000602082015250565b600061273b603d83611ed4565b9150612746826126df565b604082019050919050565b6000602082019050818103600083015261276a8161272e565b9050919050565b7f4f6e6c7920746865206f776e65722063616e207570646174652074686520746f60008201527f6b656e2055524900000000000000000000000000000000000000000000000000602082015250565b60006127cd602783611ed4565b91506127d882612771565b604082019050919050565b600060208201905081810360008301526127fc816127c0565b9050919050565b7f546f6b656e20494420646f6573206e6f74206578697374000000000000000000600082015250565b6000612839601783611ed4565b915061284482612803565b602082019050919050565b600060208201905081810360008301526128688161282c565b9050919050565b7f4552433732313a2063616c6c6572206973206e6f7420746f6b656e206f776e6560008201527f72206f7220617070726f76656400000000000000000000000000000000000000602082015250565b60006128cb602d83611ed4565b91506128d68261286f565b604082019050919050565b600060208201905081810360008301526128fa816128be565b9050919050565b7f4552433732313a20696e76616c696420746f6b656e2049440000000000000000600082015250565b6000612937601883611ed4565b915061294282612901565b602082019050919050565b600060208201905081810360008301526129668161292a565b9050919050565b7f4552433732313a2061646472657373207a65726f206973206e6f74206120766160008201527f6c6964206f776e65720000000000000000000000000000000000000000000000602082015250565b60006129c9602983611ed4565b91506129d48261296d565b604082019050919050565b600060208201905081810360008301526129f8816129bc565b9050919050565b600081905092915050565b6000612a1582611ec9565b612a1f81856129ff565b9350612a2f818560208601611ee5565b80840191505092915050565b6000612a478285612a0a565b9150612a538284612a0a565b91508190509392505050565b7f4f776e61626c653a206e6577206f776e657220697320746865207a65726f206160008201527f6464726573730000000000000000000000000000000000000000000000000000602082015250565b6000612abb602683611ed4565b9150612ac682612a5f565b604082019050919050565b60006020820190508181036000830152612aea81612aae565b9050919050565b7f45524337323155524953746f726167653a2055524920736574206f66206e6f6e60008201527f6578697374656e7420746f6b656e000000000000000000000000000000000000602082015250565b6000612b4d602e83611ed4565b9150612b5882612af1565b604082019050919050565b60006020820190508181036000830152612b7c81612b40565b9050919050565b60008190508160005260206000209050919050565b60006020601f8301049050919050565b600082821b905092915050565b600060088302612be57fffffffffffffffffffffffffffffffffffffffffffffffffffffffffffffffff82612ba8565b612bef8683612ba8565b95508019841693508086168417925050509392505050565b6000819050919050565b6000612c2c612c27612c2284611f7b565b612c07565b611f7b565b9050919050565b6000819050919050565b612c4683612c11565b612c5a612c5282612c33565b848454612bb5565b825550505050565b600090565b612c6f612c62565b612c7a818484612c3d565b505050565b5b81811015612c9e57612c93600082612c67565b600181019050612c80565b5050565b601f821115612ce357612cb481612b83565b612cbd84612b98565b81016020851015612ccc578190505b612ce0612cd885612b98565b830182612c7f565b50505b505050565b600082821c905092915050565b6000612d0660001984600802612ce8565b1980831691505092915050565b6000612d1f8383612cf5565b9150826002028217905092915050565b612d3882611ec9565b67ffffffffffffffff811115612d5157612d506120b0565b5b612d5b825461261c565b612d66828285612ca2565b600060209050601f831160018114612d995760008415612d87578287015190505b612d918582612d13565b865550612df9565b601f198416612da786612b83565b60005b82811015612dcf57848901518255600182019150602085019450602081019050612daa565b86831015612dec5784890151612de8601f891682612cf5565b8355505b6001600288020188555050505b505050505050565b7f4552433732313a207472616e736665722066726f6d20696e636f72726563742060008201527f6f776e6572000000000000000000000000000000000000000000000000000000602082015250565b6000612e5d602583611ed4565b9150612e6882612e01565b604082019050919050565b60006020820190508181036000830152612e8c81612e50565b9050919050565b7f4552433732313a207472616e7366657220746f20746865207a65726f2061646460008201527f7265737300000000000000000000000000000000000000000000000000000000602082015250565b6000612eef602483611ed4565b9150612efa82612e93565b604082019050919050565b60006020820190508181036000830152612f1e81612ee2565b9050919050565b7f4f776e61626c653a2063616c6c6572206973206e6f7420746865206f776e6572600082015250565b6000612f5b602083611ed4565b9150612f6682612f25565b602082019050919050565b60006020820190508181036000830152612f8a81612f4e565b9050919050565b7f4552433732313a20617070726f766520746f2063616c6c657200000000000000600082015250565b6000612fc7601983611ed4565b9150612fd282612f91565b602082019050919050565b60006020820190508181036000830152612ff681612fba565b9050919050565b7f4552433732313a207472616e7366657220746f206e6f6e20455243373231526560008201527f63656976657220696d706c656d656e7465720000000000000000000000000000602082015250565b6000613059603283611ed4565b915061306482612ffd565b604082019050919050565b600060208201905081810360008301526130888161304c565b9050919050565b7f4552433732313a206d696e7420746f20746865207a65726f2061646472657373600082015250565b60006130c5602083611ed4565b91506130d08261308f565b602082019050919050565b600060208201905081810360008301526130f4816130b8565b9050919050565b7f4552433732313a20746f6b656e20616c7265616479206d696e74656400000000600082015250565b6000613131601c83611ed4565b915061313c826130fb565b602082019050919050565b6000602082019050818103600083015261316081613124565b9050919050565b600081519050919050565b600082825260208201905092915050565b600061318e82613167565b6131988185613172565b93506131a8818560208601611ee5565b6131b181611f0f565b840191505092915050565b60006080820190506131d16000830187612010565b6131de6020830186612010565b6131eb60408301856122b7565b81810360608301526131fd8184613183565b905095945050505050565b60008151905061321781611e3a565b92915050565b60006020828403121561323357613232611e04565b5b600061324184828501613208565b91505092915050565b7f4e487b7100000000000000000000000000000000000000000000000000000000600052601260045260246000fdfea264697066735822122025bc9939191c185e6ba40721edfa56493528e86ff5f3c701f14f0ddd914e4e0564736f6c63430008110033",
  "linkReferences": {},
  "deployedLinkReferences": {}
}